{
  "transactions": [
    {
      "hash": "0x64dc796d9681f8cac2c85578c1e2ca1cf80cf5a0214db0315b29ab0df965c651",
      "transactionType": "CREATE",
      "contractName": "TestNFT",
      "contractAddress": "0x2ad52d0dda18d03b2adefbb0e242b5e7e4f319f0",
      "function": null,
      "arguments": null,
      "transaction": {
        "from": "0x1135d4546611d7cccc7c4e0315072ef2e61b9483",
        "gas": "0x1ebefc",
        "value": "0x0",
        "input": "0x60806040526040518060400160405280600d81526020017f5465737450726f74617264696f000000000000000000000000000000000000008152505f908162000049919062000308565b506040518060400160405280600581526020017f5450524f540000000000000000000000000000000000000000000000000000008152506001908162000090919062000308565b503480156200009d575f80fd5b50620003ec565b5f81519050919050565b7f4e487b71000000000000000000000000000000000000000000000000000000005f52604160045260245ffd5b7f4e487b71000000000000000000000000000000000000000000000000000000005f52602260045260245ffd5b5f60028204905060018216806200012057607f821691505b602082108103620001365762000135620000db565b5b50919050565b5f819050815f5260205f209050919050565b5f6020601f8301049050919050565b5f82821b905092915050565b5f600883026200019a7fffffffffffffffffffffffffffffffffffffffffffffffffffffffffffffffff826200015d565b620001a686836200015d565b95508019841693508086168417925050509392505050565b5f819050919050565b5f819050919050565b5f620001f0620001ea620001e484620001be565b620001c7565b620001be565b9050919050565b5f819050919050565b6200020b83620001d0565b620002236200021a82620001f7565b84845462000169565b825550505050565b5f90565b620002396200022b565b6200024681848462000200565b505050565b5b818110156200026d57620002615f826200022f565b6001810190506200024c565b5050565b601f821115620002bc5762000286816200013c565b62000291846200014e565b81016020851015620002a1578190505b620002b9620002b0856200014e565b8301826200024b565b50505b505050565b5f82821c905092915050565b5f620002de5f1984600802620002c1565b1980831691505092915050565b5f620002f88383620002cd565b9150826002028217905092915050565b6200031382620000a4565b67ffffffffffffffff8111156200032f576200032e620000ae565b5b6200033b825462000108565b6200034882828562000271565b5f60209050601f8311600181146200037e575f841562000369578287015190505b620003758582620002eb565b865550620003e4565b601f1984166200038e866200013c565b5f5b82811015620003b75784890151825560018201915060208501945060208101905062000390565b86831015620003d75784890151620003d3601f891682620002cd565b8355505b6001600288020188555050505b505050505050565b611a1280620003fa5f395ff3fe608060405234801561000f575f80fd5b50600436106100cd575f3560e01c806340c10f191161008a57806375ceb3411161006457806375ceb3411461022157806395d89b411461023d578063a22cb4651461025b578063e985e9c514610277576100cd565b806340c10f19146101a55780636352211e146101c157806370a08231146101f1576100cd565b806301ffc9a7146100d157806306fdde0314610101578063081812fc1461011f578063095ea7b31461014f57806318160ddd1461016b57806323b872dd14610189575b5f80fd5b6100eb60048036038101906100e691906111e7565b6102a7565b6040516100f8919061122c565b60405180910390f35b610109610308565b60405161011691906112cf565b60405180910390f35b61013960048036038101906101349190611322565b610393565b604051610146919061138c565b60405180910390f35b610169600480360381019061016491906113cf565b61046a565b005b610173610647565b604051610180919061141c565b60405180910390f35b6101a3600480360381019061019e9190611435565b61064d565b005b6101bf60048036038101906101ba91906113cf565b610a3f565b005b6101db60048036038101906101d69190611322565b610bf4565b6040516101e8919061138c565b60405180910390f35b61020b60048036038101906102069190611485565b610ca0565b604051610218919061141c565b60405180910390f35b61023b60048036038101906102369190611511565b610d54565b005b610245610f78565b60405161025291906112cf565b60405180910390f35b61027560048036038101906102709190611598565b611004565b005b610291600480360381019061028c91906115d6565b6110fc565b60405161029e919061122c565b60405180910390f35b5f6380ac58cd60e01b827bffffffffffffffffffffffffffffffffffffffffffffffffffffffff1916148061030157506301ffc9a760e01b827bffffffffffffffffffffffffffffffffffffffffffffffffffffffff1916145b9050919050565b5f805461031490611641565b80601f016020809104026020016040519081016040528092919081815260200182805461034090611641565b801561038b5780601f106103625761010080835404028352916020019161038b565b820191905f5260205f20905b81548152906001019060200180831161036e57829003601f168201915b505050505081565b5f8073ffffffffffffffffffffffffffffffffffffffff1660025f8481526020019081526020015f205f9054906101000a900473ffffffffffffffffffffffffffffffffffffffff1673ffffffffffffffffffffffffffffffffffffffff1603610432576040517f08c379a0000000000000000000000000000000000000000000000000000000008152600401610429906116bb565b60405180910390fd5b60045f8381526020019081526020015f205f9054906101000a900473ffffffffffffffffffffffffffffffffffffffff169050919050565b5f60025f8381526020019081526020015f205f9054906101000a900473ffffffffffffffffffffffffffffffffffffffff1690508073ffffffffffffffffffffffffffffffffffffffff163373ffffffffffffffffffffffffffffffffffffffff161480610559575060055f8273ffffffffffffffffffffffffffffffffffffffff1673ffffffffffffffffffffffffffffffffffffffff1681526020019081526020015f205f3373ffffffffffffffffffffffffffffffffffffffff1673ffffffffffffffffffffffffffffffffffffffff1681526020019081526020015f205f9054906101000a900460ff165b610598576040517f08c379a000000000000000000000000000000000000000000000000000000000815260040161058f90611723565b60405180910390fd5b8260045f8481526020019081526020015f205f6101000a81548173ffffffffffffffffffffffffffffffffffffffff021916908373ffffffffffffffffffffffffffffffffffffffff160217905550818373ffffffffffffffffffffffffffffffffffffffff168273ffffffffffffffffffffffffffffffffffffffff167f8c5be1e5ebec7d5bd14f71427d1e84f3dd0314c0f7b2291e5b200ac8c7c3b92560405160405180910390a4505050565b60065481565b8273ffffffffffffffffffffffffffffffffffffffff1660025f8381526020019081526020015f205f9054906101000a900473ffffffffffffffffffffffffffffffffffffffff1673ffffffffffffffffffffffffffffffffffffffff16146106eb576040517f08c379a00000000000000000000000000000000000000000000000000000000081526004016106e29061178b565b60405180910390fd5b8273ffffffffffffffffffffffffffffffffffffffff163373ffffffffffffffffffffffffffffffffffffffff16148061078057503373ffffffffffffffffffffffffffffffffffffffff1660045f8381526020019081526020015f205f9054906101000a900473ffffffffffffffffffffffffffffffffffffffff1673ffffffffffffffffffffffffffffffffffffffff16145b8061080c575060055f8473ffffffffffffffffffffffffffffffffffffffff1673ffffffffffffffffffffffffffffffffffffffff1681526020019081526020015f205f3373ffffffffffffffffffffffffffffffffffffffff1673ffffffffffffffffffffffffffffffffffffffff1681526020019081526020015f205f9054906101000a900460ff165b61084b576040517f08c379a0000000000000000000000000000000000000000000000000000000008152600401610842906117f3565b60405180910390fd5b5f73ffffffffffffffffffffffffffffffffffffffff168273ffffffffffffffffffffffffffffffffffffffff16036108b9576040517f08c379a00000000000000000000000000000000000000000000000000000000081526004016108b09061185b565b60405180910390fd5b8160025f8381526020019081526020015f205f6101000a81548173ffffffffffffffffffffffffffffffffffffffff021916908373ffffffffffffffffffffffffffffffffffffffff16021790555060035f8473ffffffffffffffffffffffffffffffffffffffff1673ffffffffffffffffffffffffffffffffffffffff1681526020019081526020015f205f815480929190610955906118a6565b919050555060035f8373ffffffffffffffffffffffffffffffffffffffff1673ffffffffffffffffffffffffffffffffffffffff1681526020019081526020015f205f8154809291906109a7906118cd565b919050555060045f8281526020019081526020015f205f6101000a81549073ffffffffffffffffffffffffffffffffffffffff0219169055808273ffffffffffffffffffffffffffffffffffffffff168473ffffffffffffffffffffffffffffffffffffffff167fddf252ad1be2c89b69c2b068fc378daa952ba7f163c4a11628f55a4df523b3ef60405160405180910390a4505050565b5f73ffffffffffffffffffffffffffffffffffffffff1660025f8381526020019081526020015f205f9054906101000a900473ffffffffffffffffffffffffffffffffffffffff1673ffffffffffffffffffffffffffffffffffffffff1614610add576040517f08c379a0000000000000000000000000000000000000000000000000000000008152600401610ad49061195e565b60405180910390fd5b8160025f8381526020019081526020015f205f6101000a81548173ffffffffffffffffffffffffffffffffffffffff021916908373ffffffffffffffffffffffffffffffffffffffff16021790555060035f8373ffffffffffffffffffffffffffffffffffffffff1673ffffffffffffffffffffffffffffffffffffffff1681526020019081526020015f205f815480929190610b79906118cd565b919050555060065f815480929190610b90906118cd565b9190505550808273ffffffffffffffffffffffffffffffffffffffff165f73ffffffffffffffffffffffffffffffffffffffff167fddf252ad1be2c89b69c2b068fc378daa952ba7f163c4a11628f55a4df523b3ef60405160405180910390a45050565b5f8060025f8481526020019081526020015f205f9054906101000a900473ffffffffffffffffffffffffffffffffffffffff1690505f73ffffffffffffffffffffffffffffffffffffffff168173ffffffffffffffffffffffffffffffffffffffff1603610c97576040517f08c379a0000000000000000000000000000000000000000000000000000000008152600401610c8e906116bb565b60405180910390fd5b80915050919050565b5f8073ffffffffffffffffffffffffffffffffffffffff168273ffffffffffffffffffffffffffffffffffffffff1603610d0f576040517f08c379a0000000000000000000000000000000000000000000000000000000008152600401610d069061185b565b60405180910390fd5b60035f8373ffffffffffffffffffffffffffffffffffffffff1673ffffffffffffffffffffffffffffffffffffffff1681526020019081526020015f20549050919050565b5f5b82829050811015610f01575f73ffffffffffffffffffffffffffffffffffffffff1660025f858585818110610d8e57610d8d61197c565b5b9050602002013581526020019081526020015f205f9054906101000a900473ffffffffffffffffffffffffffffffffffffffff1673ffffffffffffffffffffffffffffffffffffffff1614610e18576040517f08c379a0000000000000000000000000000000000000000000000000000000008152600401610e0f9061195e565b60405180910390fd5b8360025f858585818110610e2f57610e2e61197c565b5b9050602002013581526020019081526020015f205f6101000a81548173ffffffffffffffffffffffffffffffffffffffff021916908373ffffffffffffffffffffffffffffffffffffffff160217905550828282818110610e9357610e9261197c565b5b905060200201358473ffffffffffffffffffffffffffffffffffffffff165f73ffffffffffffffffffffffffffffffffffffffff167fddf252ad1be2c89b69c2b068fc378daa952ba7f163c4a11628f55a4df523b3ef60405160405180910390a48080600101915050610d56565b508181905060035f8573ffffffffffffffffffffffffffffffffffffffff1673ffffffffffffffffffffffffffffffffffffffff1681526020019081526020015f205f828254610f5191906119a9565b925050819055508181905060065f828254610f6c91906119a9565b92505081905550505050565b60018054610f8590611641565b80601f0160208091040260200160405190810160405280929190818152602001828054610fb190611641565b8015610ffc5780601f10610fd357610100808354040283529160200191610ffc565b820191905f5260205f20905b815481529060010190602001808311610fdf57829003601f168201915b505050505081565b8060055f3373ffffffffffffffffffffffffffffffffffffffff1673ffffffffffffffffffffffffffffffffffffffff1681526020019081526020015f205f8473ffffffffffffffffffffffffffffffffffffffff1673ffffffffffffffffffffffffffffffffffffffff1681526020019081526020015f205f6101000a81548160ff0219169083151502179055508173ffffffffffffffffffffffffffffffffffffffff163373ffffffffffffffffffffffffffffffffffffffff167f17307eab39ab6107e8899845ad3d59bd9653f200f220920489ca2b5937696c31836040516110f0919061122c565b60405180910390a35050565b5f60055f8473ffffffffffffffffffffffffffffffffffffffff1673ffffffffffffffffffffffffffffffffffffffff1681526020019081526020015f205f8373ffffffffffffffffffffffffffffffffffffffff1673ffffffffffffffffffffffffffffffffffffffff1681526020019081526020015f205f9054906101000a900460ff16905092915050565b5f80fd5b5f80fd5b5f7fffffffff0000000000000000000000000000000000000000000000000000000082169050919050565b6111c681611192565b81146111d0575f80fd5b50565b5f813590506111e1816111bd565b92915050565b5f602082840312156111fc576111fb61118a565b5b5f611209848285016111d3565b91505092915050565b5f8115159050919050565b61122681611212565b82525050565b5f60208201905061123f5f83018461121d565b92915050565b5f81519050919050565b5f82825260208201905092915050565b5f5b8381101561127c578082015181840152602081019050611261565b5f8484015250505050565b5f601f19601f8301169050919050565b5f6112a182611245565b6112ab818561124f565b93506112bb81856020860161125f565b6112c481611287565b840191505092915050565b5f6020820190508181035f8301526112e78184611297565b905092915050565b5f819050919050565b611301816112ef565b811461130b575f80fd5b50565b5f8135905061131c816112f8565b92915050565b5f602082840312156113375761133661118a565b5b5f6113448482850161130e565b91505092915050565b5f73ffffffffffffffffffffffffffffffffffffffff82169050919050565b5f6113768261134d565b9050919050565b6113868161136c565b82525050565b5f60208201905061139f5f83018461137d565b92915050565b6113ae8161136c565b81146113b8575f80fd5b50565b5f813590506113c9816113a5565b92915050565b5f80604083850312156113e5576113e461118a565b5b5f6113f2858286016113bb565b92505060206114038582860161130e565b9150509250929050565b611416816112ef565b82525050565b5f60208201905061142f5f83018461140d565b92915050565b5f805f6060848603121561144c5761144b61118a565b5b5f611459868287016113bb565b935050602061146a868287016113bb565b925050604061147b8682870161130e565b9150509250925092565b5f6020828403121561149a5761149961118a565b5b5f6114a7848285016113bb565b91505092915050565b5f80fd5b5f80fd5b5f80fd5b5f8083601f8401126114d1576114d06114b0565b5b8235905067ffffffffffffffff8111156114ee576114ed6114b4565b5b60208301915083602082028301111561150a576115096114b8565b5b9250929050565b5f805f604084860312156115285761152761118a565b5b5f611535868287016113bb565b935050602084013567ffffffffffffffff8111156115565761155561118e565b5b611562868287016114bc565b92509250509250925092565b61157781611212565b8114611581575f80fd5b50565b5f813590506115928161156e565b92915050565b5f80604083850312156115ae576115ad61118a565b5b5f6115bb858286016113bb565b92505060206115cc85828601611584565b9150509250929050565b5f80604083850312156115ec576115eb61118a565b5b5f6115f9858286016113bb565b925050602061160a858286016113bb565b9150509250929050565b7f4e487b71000000000000000000000000000000000000000000000000000000005f52602260045260245ffd5b5f600282049050600182168061165857607f821691505b60208210810361166b5761166a611614565b5b50919050565b7f546f6b656e20646f6573206e6f742065786973740000000000000000000000005f82015250565b5f6116a560148361124f565b91506116b082611671565b602082019050919050565b5f6020820190508181035f8301526116d281611699565b9050919050565b7f4e6f7420617574686f72697a65640000000000000000000000000000000000005f82015250565b5f61170d600e8361124f565b9150611718826116d9565b602082019050919050565b5f6020820190508181035f83015261173a81611701565b9050919050565b7f4e6f74206f776e657200000000000000000000000000000000000000000000005f82015250565b5f61177560098361124f565b915061178082611741565b602082019050919050565b5f6020820190508181035f8301526117a281611769565b9050919050565b7f4e6f7420617070726f76656400000000000000000000000000000000000000005f82015250565b5f6117dd600c8361124f565b91506117e8826117a9565b602082019050919050565b5f6020820190508181035f83015261180a816117d1565b9050919050565b7f5a65726f206164647265737300000000000000000000000000000000000000005f82015250565b5f611845600c8361124f565b915061185082611811565b602082019050919050565b5f6020820190508181035f83015261187281611839565b9050919050565b7f4e487b71000000000000000000000000000000000000000000000000000000005f52601160045260245ffd5b5f6118b0826112ef565b91505f82036118c2576118c1611879565b5b600182039050919050565b5f6118d7826112ef565b91507fffffffffffffffffffffffffffffffffffffffffffffffffffffffffffffffff820361190957611908611879565b5b600182019050919050565b7f416c7265616479206d696e7465640000000000000000000000000000000000005f82015250565b5f611948600e8361124f565b915061195382611914565b602082019050919050565b5f6020820190508181035f8301526119758161193c565b9050919050565b7f4e487b71000000000000000000000000000000000000000000000000000000005f52603260045260245ffd5b5f6119b3826112ef565b91506119be836112ef565b92508282019050808211156119d6576119d5611879565b5b9291505056fea2646970667358221220d742daf04441cda22a0eaeed51630284efcfe50a32342e041fe12ce2b0a2a26764736f6c63430008180033",
        "nonce": "0xc7b",
        "chainId": "0x14a34"
      },
      "additionalContracts": [],
      "isFixedGasLimit": false
    },
    {
      "hash": "0x90617627409d557b16447cadac18baa92fa0d2131a8f5f1a2ca1623cb8b9edd0",
      "transactionType": "CREATE",
      "contractName": "ProtardioTreasury",
      "contractAddress": "0x4575a3c03d3d0818a44ab2960163d277c53adad0",
      "function": null,
      "arguments": [
        "0x2ad52D0DDA18d03B2ADeFBB0E242b5E7e4F319f0",
        "2000000000000000"
      ],
      "transaction": {
        "from": "0x1135d4546611d7cccc7c4e0315072ef2e61b9483",
        "gas": "0x1e4fd5",
        "value": "0x0",
        "input": "0x60a060405234801562000010575f80fd5b5060405162001bad38038062001bad833981810160405281019062000036919062000155565b335f806101000a81548173ffffffffffffffffffffffffffffffffffffffff021916908373ffffffffffffffffffffffffffffffffffffffff1602179055508173ffffffffffffffffffffffffffffffffffffffff1660808173ffffffffffffffffffffffffffffffffffffffff16815250508060018190555050506200019a565b5f80fd5b5f73ffffffffffffffffffffffffffffffffffffffff82169050919050565b5f620000e782620000bc565b9050919050565b620000f981620000db565b811462000104575f80fd5b50565b5f815190506200011781620000ee565b92915050565b5f819050919050565b62000131816200011d565b81146200013c575f80fd5b50565b5f815190506200014f8162000126565b92915050565b5f80604083850312156200016e576200016d620000b8565b5b5f6200017d8582860162000107565b925050602062000190858286016200013f565b9150509250929050565b6080516119de620001cf5f395f81816107450152818161094001528181610a1201528181610b1e0152610bb101526119de5ff3fe6080604052600436106100df575f3560e01c80638a12c47a1161007e578063c1d2d00d11610058578063c1d2d00d146102be578063c9e27c01146102e6578063d96073cf14610310578063f2fde38b1461032c576100e6565b80638a12c47a146102305780638da5cb5b14610258578063a2360a5b14610282576100e6565b80636831e0d8116100ba5780636831e0d81461017a578063690d8320146101a45780636b3b4810146101cc5780637f401654146101f4576100e6565b8062705f01146100ea578063150b7a02146101145780631fba549514610150576100e6565b366100e657005b5f80fd5b3480156100f5575f80fd5b506100fe610354565b60405161010b9190611073565b60405180910390f35b34801561011f575f80fd5b5061013a60048036038101906101359190611180565b6103aa565b604051610147919061123e565b60405180910390f35b34801561015b575f80fd5b506101646103be565b6040516101719190611266565b60405180910390f35b348015610185575f80fd5b5061018e6103ca565b60405161019b9190611266565b60405180910390f35b3480156101af575f80fd5b506101ca60048036038101906101c5919061127f565b6103d0565b005b3480156101d7575f80fd5b506101f260048036038101906101ed91906112aa565b61059e565b005b3480156101ff575f80fd5b5061021a600480360381019061021591906112aa565b61066c565b6040516102279190611266565b60405180910390f35b34801561023b575f80fd5b506102566004803603810190610251919061132a565b61068c565b005b348015610263575f80fd5b5061026c610816565b6040516102799190611384565b60405180910390f35b34801561028d575f80fd5b506102a860048036038101906102a391906112aa565b610839565b6040516102b591906113b7565b60405180910390f35b3480156102c9575f80fd5b506102e460048036038101906102df91906113d0565b610855565b005b3480156102f1575f80fd5b506102fa610a10565b6040516103079190611469565b60405180910390f35b61032a60048036038101906103259190611482565b610a34565b005b348015610337575f80fd5b50610352600480360381019061034d919061127f565b610d52565b005b606060028054806020026020016040519081016040528092919081815260200182805480156103a057602002820191905f5260205f20905b81548152602001906001019080831161038c575b5050505050905090565b5f63150b7a0260e01b905095945050505050565b5f600280549050905090565b60015481565b5f8054906101000a900473ffffffffffffffffffffffffffffffffffffffff1673ffffffffffffffffffffffffffffffffffffffff163373ffffffffffffffffffffffffffffffffffffffff161461045d576040517f08c379a00000000000000000000000000000000000000000000000000000000081526004016104549061151a565b60405180910390fd5b5f4790505f81116104a3576040517f08c379a000000000000000000000000000000000000000000000000000000000815260040161049a90611582565b60405180910390fd5b5f8273ffffffffffffffffffffffffffffffffffffffff16826040516104c8906115cd565b5f6040518083038185875af1925050503d805f8114610502576040519150601f19603f3d011682016040523d82523d5f602084013e610507565b606091505b505090508061054b576040517f08c379a00000000000000000000000000000000000000000000000000000000081526004016105429061162b565b60405180910390fd5b8273ffffffffffffffffffffffffffffffffffffffff167f94b2de810873337ed265c5f8cf98c9cffefa06b8607f9a2f1fbaebdfbcfbef1c836040516105919190611266565b60405180910390a2505050565b5f8054906101000a900473ffffffffffffffffffffffffffffffffffffffff1673ffffffffffffffffffffffffffffffffffffffff163373ffffffffffffffffffffffffffffffffffffffff161461062b576040517f08c379a00000000000000000000000000000000000000000000000000000000081526004016106229061151a565b60405180910390fd5b806001819055507f5d357325951000e455956c81bca3ef9d8f2869347e75ed8411e2d9b70157fcd6816040516106619190611266565b60405180910390a150565b6002818154811061067b575f80fd5b905f5260205f20015f915090505481565b5f8054906101000a900473ffffffffffffffffffffffffffffffffffffffff1673ffffffffffffffffffffffffffffffffffffffff163373ffffffffffffffffffffffffffffffffffffffff1614610719576040517f08c379a00000000000000000000000000000000000000000000000000000000081526004016107109061151a565b60405180910390fd5b5f5b82829050811015610811575f83838381811061073a57610739611649565b5b9050602002013590507f000000000000000000000000000000000000000000000000000000000000000073ffffffffffffffffffffffffffffffffffffffff166323b872dd3330846040518463ffffffff1660e01b81526004016107a093929190611676565b5f604051808303815f87803b1580156107b7575f80fd5b505af11580156107c9573d5f803e3d5ffd5b505050506107d681610e8f565b807ff36d7a61da5869f1f725b62b3414422372ff984566d321f9758ec768fb859a8860405160405180910390a250808060010191505061071b565b505050565b5f8054906101000a900473ffffffffffffffffffffffffffffffffffffffff1681565b5f8060035f8481526020019081526020015f2054119050919050565b5f8054906101000a900473ffffffffffffffffffffffffffffffffffffffff1673ffffffffffffffffffffffffffffffffffffffff163373ffffffffffffffffffffffffffffffffffffffff16146108e2576040517f08c379a00000000000000000000000000000000000000000000000000000000081526004016108d99061151a565b60405180910390fd5b5f60035f8481526020019081526020015f205411610935576040517f08c379a000000000000000000000000000000000000000000000000000000000815260040161092c906116f5565b60405180910390fd5b61093e82610ed3565b7f000000000000000000000000000000000000000000000000000000000000000073ffffffffffffffffffffffffffffffffffffffff166323b872dd3083856040518463ffffffff1660e01b815260040161099b93929190611676565b5f604051808303815f87803b1580156109b2575f80fd5b505af11580156109c4573d5f803e3d5ffd5b505050508073ffffffffffffffffffffffffffffffffffffffff16827fbcc8fe70ca8bacb5e7c02b4671a4f8d7d3217b6706bc2e6f405c43d8954c055c60405160405180910390a35050565b7f000000000000000000000000000000000000000000000000000000000000000081565b600154341015610a79576040517f08c379a0000000000000000000000000000000000000000000000000000000008152600401610a709061175d565b60405180910390fd5b5f60028054905011610ac0576040517f08c379a0000000000000000000000000000000000000000000000000000000008152600401610ab7906117c5565b60405180910390fd5b5f60035f8381526020019081526020015f205411610b13576040517f08c379a0000000000000000000000000000000000000000000000000000000008152600401610b0a906116f5565b60405180910390fd5b610b1c81610ed3565b7f000000000000000000000000000000000000000000000000000000000000000073ffffffffffffffffffffffffffffffffffffffff166323b872dd3330856040518463ffffffff1660e01b8152600401610b7993929190611676565b5f604051808303815f87803b158015610b90575f80fd5b505af1158015610ba2573d5f803e3d5ffd5b50505050610baf82610e8f565b7f000000000000000000000000000000000000000000000000000000000000000073ffffffffffffffffffffffffffffffffffffffff166323b872dd3033846040518463ffffffff1660e01b8152600401610c0c93929190611676565b5f604051808303815f87803b158015610c23575f80fd5b505af1158015610c35573d5f803e3d5ffd5b50505050600154341115610cfa575f3373ffffffffffffffffffffffffffffffffffffffff1660015434610c699190611810565b604051610c75906115cd565b5f6040518083038185875af1925050503d805f8114610caf576040519150601f19603f3d011682016040523d82523d5f602084013e610cb4565b606091505b5050905080610cf8576040517f08c379a0000000000000000000000000000000000000000000000000000000008152600401610cef9061188d565b60405180910390fd5b505b3373ffffffffffffffffffffffffffffffffffffffff167fa56f299112907aef27538a71eaf6eb56d0731f4f6ed8736b57d271532f3f48c58383600154604051610d46939291906118ab565b60405180910390a25050565b5f8054906101000a900473ffffffffffffffffffffffffffffffffffffffff1673ffffffffffffffffffffffffffffffffffffffff163373ffffffffffffffffffffffffffffffffffffffff1614610ddf576040517f08c379a0000000000000000000000000000000000000000000000000000000008152600401610dd69061151a565b60405180910390fd5b5f73ffffffffffffffffffffffffffffffffffffffff168173ffffffffffffffffffffffffffffffffffffffff1603610e4d576040517f08c379a0000000000000000000000000000000000000000000000000000000008152600401610e449061192a565b60405180910390fd5b805f806101000a81548173ffffffffffffffffffffffffffffffffffffffff021916908373ffffffffffffffffffffffffffffffffffffffff16021790555050565b600281908060018154018082558091505060019003905f5260205f20015f909190919091505560028054905060035f8381526020019081526020015f208190555050565b5f600160035f8481526020019081526020015f2054610ef29190611810565b90505f6001600280549050610f079190611810565b9050808214610f75575f60028281548110610f2557610f24611649565b5b905f5260205f20015490508060028481548110610f4557610f44611649565b5b905f5260205f200181905550600183610f5e9190611948565b60035f8381526020019081526020015f2081905550505b6002805480610f8757610f8661197b565b5b600190038181905f5260205f20015f9055905560035f8481526020019081526020015f205f9055505050565b5f81519050919050565b5f82825260208201905092915050565b5f819050602082019050919050565b5f819050919050565b610fee81610fdc565b82525050565b5f610fff8383610fe5565b60208301905092915050565b5f602082019050919050565b5f61102182610fb3565b61102b8185610fbd565b935061103683610fcd565b805f5b8381101561106657815161104d8882610ff4565b97506110588361100b565b925050600181019050611039565b5085935050505092915050565b5f6020820190508181035f83015261108b8184611017565b905092915050565b5f80fd5b5f80fd5b5f73ffffffffffffffffffffffffffffffffffffffff82169050919050565b5f6110c48261109b565b9050919050565b6110d4816110ba565b81146110de575f80fd5b50565b5f813590506110ef816110cb565b92915050565b6110fe81610fdc565b8114611108575f80fd5b50565b5f81359050611119816110f5565b92915050565b5f80fd5b5f80fd5b5f80fd5b5f8083601f8401126111405761113f61111f565b5b8235905067ffffffffffffffff81111561115d5761115c611123565b5b60208301915083600182028301111561117957611178611127565b5b9250929050565b5f805f805f6080868803121561119957611198611093565b5b5f6111a6888289016110e1565b95505060206111b7888289016110e1565b94505060406111c88882890161110b565b935050606086013567ffffffffffffffff8111156111e9576111e8611097565b5b6111f58882890161112b565b92509250509295509295909350565b5f7fffffffff0000000000000000000000000000000000000000000000000000000082169050919050565b61123881611204565b82525050565b5f6020820190506112515f83018461122f565b92915050565b61126081610fdc565b82525050565b5f6020820190506112795f830184611257565b92915050565b5f6020828403121561129457611293611093565b5b5f6112a1848285016110e1565b91505092915050565b5f602082840312156112bf576112be611093565b5b5f6112cc8482850161110b565b91505092915050565b5f8083601f8401126112ea576112e961111f565b5b8235905067ffffffffffffffff81111561130757611306611123565b5b60208301915083602082028301111561132357611322611127565b5b9250929050565b5f80602083850312156113405761133f611093565b5b5f83013567ffffffffffffffff81111561135d5761135c611097565b5b611369858286016112d5565b92509250509250929050565b61137e816110ba565b82525050565b5f6020820190506113975f830184611375565b92915050565b5f8115159050919050565b6113b18161139d565b82525050565b5f6020820190506113ca5f8301846113a8565b92915050565b5f80604083850312156113e6576113e5611093565b5b5f6113f38582860161110b565b9250506020611404858286016110e1565b9150509250929050565b5f819050919050565b5f61143161142c6114278461109b565b61140e565b61109b565b9050919050565b5f61144282611417565b9050919050565b5f61145382611438565b9050919050565b61146381611449565b82525050565b5f60208201905061147c5f83018461145a565b92915050565b5f806040838503121561149857611497611093565b5b5f6114a58582860161110b565b92505060206114b68582860161110b565b9150509250929050565b5f82825260208201905092915050565b7f4e6f74206f776e657200000000000000000000000000000000000000000000005f82015250565b5f6115046009836114c0565b915061150f826114d0565b602082019050919050565b5f6020820190508181035f830152611531816114f8565b9050919050565b7f4e6f2045544820746f20776974686472617700000000000000000000000000005f82015250565b5f61156c6012836114c0565b915061157782611538565b602082019050919050565b5f6020820190508181035f83015261159981611560565b9050919050565b5f81905092915050565b50565b5f6115b85f836115a0565b91506115c3826115aa565b5f82019050919050565b5f6115d7826115ad565b9150819050919050565b7f5472616e73666572206661696c656400000000000000000000000000000000005f82015250565b5f611615600f836114c0565b9150611620826115e1565b602082019050919050565b5f6020820190508181035f83015261164281611609565b9050919050565b7f4e487b71000000000000000000000000000000000000000000000000000000005f52603260045260245ffd5b5f6060820190506116895f830186611375565b6116966020830185611375565b6116a36040830184611257565b949350505050565b7f546f6b656e206e6f7420696e20747265617375727900000000000000000000005f82015250565b5f6116df6015836114c0565b91506116ea826116ab565b602082019050919050565b5f6020820190508181035f83015261170c816116d3565b9050919050565b7f496e73756666696369656e74204554482073656e7400000000000000000000005f82015250565b5f6117476015836114c0565b915061175282611713565b602082019050919050565b5f6020820190508181035f8301526117748161173b565b9050919050565b7f547265617375727920656d7074790000000000000000000000000000000000005f82015250565b5f6117af600e836114c0565b91506117ba8261177b565b602082019050919050565b5f6020820190508181035f8301526117dc816117a3565b9050919050565b7f4e487b71000000000000000000000000000000000000000000000000000000005f52601160045260245ffd5b5f61181a82610fdc565b915061182583610fdc565b925082820390508181111561183d5761183c6117e3565b5b92915050565b7f526566756e64206661696c6564000000000000000000000000000000000000005f82015250565b5f611877600d836114c0565b915061188282611843565b602082019050919050565b5f6020820190508181035f8301526118a48161186b565b9050919050565b5f6060820190506118be5f830186611257565b6118cb6020830185611257565b6118d86040830184611257565b949350505050565b7f496e76616c6964206164647265737300000000000000000000000000000000005f82015250565b5f611914600f836114c0565b915061191f826118e0565b602082019050919050565b5f6020820190508181035f83015261194181611908565b9050919050565b5f61195282610fdc565b915061195d83610fdc565b9250828201905080821115611975576119746117e3565b5b92915050565b7f4e487b71000000000000000000000000000000000000000000000000000000005f52603160045260245ffdfea2646970667358221220455ad88da82e4e4992728a46b7500c14c7043640a584f45dd4dd8cabff85324664736f6c634300081800330000000000000000000000002ad52d0dda18d03b2adefbb0e242b5e7e4f319f000000000000000000000000000000000000000000000000000071afd498d0000",
        "nonce": "0xc7c",
        "chainId": "0x14a34"
      },
      "additionalContracts": [],
      "isFixedGasLimit": false
    },
    {
      "hash": "0xb4da1624605923ec4e5eab433de54778a100318b20260cce1c38cf52976efca7",
      "transactionType": "CALL",
      "contractName": "TestNFT",
      "contractAddress": "0x2ad52d0dda18d03b2adefbb0e242b5e7e4f319f0",
      "function": "mintBatch(address,uint256[])",
      "arguments": [
        "0x1135D4546611D7CcCC7C4E0315072Ef2E61b9483",
        "[1, 2, 3, 4, 5, 6, 7, 8, 9, 10]"
      ],
      "transaction": {
        "from": "0x1135d4546611d7cccc7c4e0315072ef2e61b9483",
        "to": "0x2ad52d0dda18d03b2adefbb0e242b5e7e4f319f0",
        "gas": "0x70627",
        "value": "0x0",
        "input": "0x75ceb3410000000000000000000000001135d4546611d7cccc7c4e0315072ef2e61b94830000000000000000000000000000000000000000000000000000000000000040000000000000000000000000000000000000000000000000000000000000000a000000000000000000000000000000000000000000000000000000000000000100000000000000000000000000000000000000000000000000000000000000020000000000000000000000000000000000000000000000000000000000000003000000000000000000000000000000000000000000000000000000000000000400000000000000000000000000000000000000000000000000000000000000050000000000000000000000000000000000000000000000000000000000000006000000000000000000000000000000000000000000000000000000000000000700000000000000000000000000000000000000000000000000000000000000080000000000000000000000000000000000000000000000000000000000000009000000000000000000000000000000000000000000000000000000000000000a",
        "nonce": "0xc7d",
        "chainId": "0x14a34"
      },
      "additionalContracts": [],
      "isFixedGasLimit": false
    },
    {
      "hash": "0x443168394397de50045a308bbaa867fe34c896a21d543ef452cc21f858fe44c8",
      "transactionType": "CALL",
      "contractName": "TestNFT",
      "contractAddress": "0x2ad52d0dda18d03b2adefbb0e242b5e7e4f319f0",
      "function": "mintBatch(address,uint256[])",
      "arguments": [
        "0x1135D4546611D7CcCC7C4E0315072Ef2E61b9483",
        "[100, 101, 102, 103, 104, 105]"
      ],
      "transaction": {
        "from": "0x1135d4546611d7cccc7c4e0315072ef2e61b9483",
        "to": "0x2ad52d0dda18d03b2adefbb0e242b5e7e4f319f0",
        "gas": "0x3d36c",
        "value": "0x0",
        "input": "0x75ceb3410000000000000000000000001135d4546611d7cccc7c4e0315072ef2e61b948300000000000000000000000000000000000000000000000000000000000000400000000000000000000000000000000000000000000000000000000000000006000000000000000000000000000000000000000000000000000000000000006400000000000000000000000000000000000000000000000000000000000000650000000000000000000000000000000000000000000000000000000000000066000000000000000000000000000000000000000000000000000000000000006700000000000000000000000000000000000000000000000000000000000000680000000000000000000000000000000000000000000000000000000000000069",
        "nonce": "0xc7e",
        "chainId": "0x14a34"
      },
      "additionalContracts": [],
      "isFixedGasLimit": false
    },
    {
      "hash": "0x2c56764a93328eb291f0750fe89b911dbfbabb062e13256c79ed71a89b458c39",
      "transactionType": "CALL",
      "contractName": "TestNFT",
      "contractAddress": "0x2ad52d0dda18d03b2adefbb0e242b5e7e4f319f0",
      "function": "setApprovalForAll(address,bool)",
      "arguments": [
        "0x4575a3c03D3d0818a44aB2960163d277C53adad0",
        "true"
      ],
      "transaction": {
        "from": "0x1135d4546611d7cccc7c4e0315072ef2e61b9483",
        "to": "0x2ad52d0dda18d03b2adefbb0e242b5e7e4f319f0",
        "gas": "0xfb3e",
        "value": "0x0",
        "input": "0xa22cb4650000000000000000000000004575a3c03d3d0818a44ab2960163d277c53adad00000000000000000000000000000000000000000000000000000000000000001",
        "nonce": "0xc7f",
        "chainId": "0x14a34"
      },
      "additionalContracts": [],
      "isFixedGasLimit": false
    },
    {
      "hash": "0x32c8d72a874bd4fa3fb28f08c40fe4b579af697a403120e60dd926519d604223",
      "transactionType": "CALL",
      "contractName": "ProtardioTreasury",
      "contractAddress": "0x4575a3c03d3d0818a44ab2960163d277c53adad0",
      "function": "depositNFTs(uint256[])",
      "arguments": [
        "[1, 2, 3, 4, 5, 6, 7, 8, 9, 10]"
      ],
      "transaction": {
        "from": "0x1135d4546611d7cccc7c4e0315072ef2e61b9483",
        "to": "0x4575a3c03d3d0818a44ab2960163d277c53adad0",
        "gas": "0xe1213",
        "value": "0x0",
        "input": "0x8a12c47a0000000000000000000000000000000000000000000000000000000000000020000000000000000000000000000000000000000000000000000000000000000a000000000000000000000000000000000000000000000000000000000000000100000000000000000000000000000000000000000000000000000000000000020000000000000000000000000000000000000000000000000000000000000003000000000000000000000000000000000000000000000000000000000000000400000000000000000000000000000000000000000000000000000000000000050000000000000000000000000000000000000000000000000000000000000006000000000000000000000000000000000000000000000000000000000000000700000000000000000000000000000000000000000000000000000000000000080000000000000000000000000000000000000000000000000000000000000009000000000000000000000000000000000000000000000000000000000000000a",
        "nonce": "0xc80",
        "chainId": "0x14a34"
      },
      "additionalContracts": [],
      "isFixedGasLimit": false
    }
  ],
  "receipts": [
    {
      "status": "0x1",
      "cumulativeGasUsed": "0x5c2f9f",
      "logs": [],
      "logsBloom": "0x00000000000000000000000000000000000000000000000000000000000000000000000000000000000000000000000000000000000000000000000000000000000000000000000000000000000000000000000000000000000000000000000000000000000000000000000000000000000000000000000000000000000000000000000000000000000000000000000000000000000000000000000000000000000000000000000000000000000000000000000000000000000000000000000000000000000000000000000000000000000000000000000000000000000000000000000000000000000000000000000000000000000000000000000000000000",
      "type": "0x2",
      "transactionHash": "0x64dc796d9681f8cac2c85578c1e2ca1cf80cf5a0214db0315b29ab0df965c651",
      "transactionIndex": "0x18",
      "blockHash": "0x4ecb2d59607e17a71c6404f185fec76bfc8f694e15afe4b13682be13130c0e52",
      "blockNumber": "0x226420a",
      "gasUsed": "0x17a69b",
      "effectiveGasPrice": "0x124f80",
      "blobGasUsed": "0xe6b98",
      "from": "0x1135d4546611d7cccc7c4e0315072ef2e61b9483",
      "to": null,
      "contractAddress": "0x2ad52d0dda18d03b2adefbb0e242b5e7e4f319f0",
      "daFootprintGasScalar": "0x138",
      "l1BaseFeeScalar": "0x44d",
      "l1BlobBaseFee": "0x1093b6",
      "l1BlobBaseFeeScalar": "0xa118b",
      "l1Fee": "0x5f0b222",
      "l1GasPrice": "0xf2507f",
      "l1GasUsed": "0xbd5e"
    },
    {
      "status": "0x1",
      "cumulativeGasUsed": "0x7380b9",
      "logs": [],
      "logsBloom": "0x00000000000000000000000000000000000000000000000000000000000000000000000000000000000000000000000000000000000000000000000000000000000000000000000000000000000000000000000000000000000000000000000000000000000000000000000000000000000000000000000000000000000000000000000000000000000000000000000000000000000000000000000000000000000000000000000000000000000000000000000000000000000000000000000000000000000000000000000000000000000000000000000000000000000000000000000000000000000000000000000000000000000000000000000000000000",
      "type": "0x2",
      "transactionHash": "0x90617627409d557b16447cadac18baa92fa0d2131a8f5f1a2ca1623cb8b9edd0",
      "transactionIndex": "0x19",
      "blockHash": "0x4ecb2d59607e17a71c6404f185fec76bfc8f694e15afe4b13682be13130c0e52",
      "blockNumber": "0x226420a",
      "gasUsed": "0x17511a",
      "effectiveGasPrice": "0x124f80",
      "blobGasUsed": "0xf13c8",
      "from": "0x1135d4546611d7cccc7c4e0315072ef2e61b9483",
      "to": null,
      "contractAddress": "0x4575a3c03d3d0818a44ab2960163d277c53adad0",
      "daFootprintGasScalar": "0x138",
      "l1BaseFeeScalar": "0x44d",
      "l1BlobBaseFee": "0x1093b6",
      "l1BlobBaseFeeScalar": "0xa118b",
      "l1Fee": "0x5f0b222",
      "l1GasPrice": "0xf2507f",
      "l1GasUsed": "0xc5f1"
    },
    {
      "status": "0x1",
      "cumulativeGasUsed": "0x784e3b",
      "logs": [
        {
          "address": "0x2ad52d0dda18d03b2adefbb0e242b5e7e4f319f0",
          "topics": [
            "0xddf252ad1be2c89b69c2b068fc378daa952ba7f163c4a11628f55a4df523b3ef",
            "0x0000000000000000000000000000000000000000000000000000000000000000",
            "0x0000000000000000000000001135d4546611d7cccc7c4e0315072ef2e61b9483",
            "0x0000000000000000000000000000000000000000000000000000000000000001"
          ],
          "data": "0x",
          "blockHash": "0x4ecb2d59607e17a71c6404f185fec76bfc8f694e15afe4b13682be13130c0e52",
          "blockNumber": "0x226420a",
          "blockTimestamp": "0x695fe2f4",
          "transactionHash": "0xb4da1624605923ec4e5eab433de54778a100318b20260cce1c38cf52976efca7",
          "transactionIndex": "0x1a",
          "logIndex": "0xb0",
          "removed": false
        },
        {
          "address": "0x2ad52d0dda18d03b2adefbb0e242b5e7e4f319f0",
          "topics": [
            "0xddf252ad1be2c89b69c2b068fc378daa952ba7f163c4a11628f55a4df523b3ef",
            "0x0000000000000000000000000000000000000000000000000000000000000000",
            "0x0000000000000000000000001135d4546611d7cccc7c4e0315072ef2e61b9483",
            "0x0000000000000000000000000000000000000000000000000000000000000002"
          ],
          "data": "0x",
          "blockHash": "0x4ecb2d59607e17a71c6404f185fec76bfc8f694e15afe4b13682be13130c0e52",
          "blockNumber": "0x226420a",
          "blockTimestamp": "0x695fe2f4",
          "transactionHash": "0xb4da1624605923ec4e5eab433de54778a100318b20260cce1c38cf52976efca7",
          "transactionIndex": "0x1a",
          "logIndex": "0xb1",
          "removed": false
        },
        {
          "address": "0x2ad52d0dda18d03b2adefbb0e242b5e7e4f319f0",
          "topics": [
            "0xddf252ad1be2c89b69c2b068fc378daa952ba7f163c4a11628f55a4df523b3ef",
            "0x0000000000000000000000000000000000000000000000000000000000000000",
            "0x0000000000000000000000001135d4546611d7cccc7c4e0315072ef2e61b9483",
            "0x0000000000000000000000000000000000000000000000000000000000000003"
          ],
          "data": "0x",
          "blockHash": "0x4ecb2d59607e17a71c6404f185fec76bfc8f694e15afe4b13682be13130c0e52",
          "blockNumber": "0x226420a",
          "blockTimestamp": "0x695fe2f4",
          "transactionHash": "0xb4da1624605923ec4e5eab433de54778a100318b20260cce1c38cf52976efca7",
          "transactionIndex": "0x1a",
          "logIndex": "0xb2",
          "removed": false
        },
        {
          "address": "0x2ad52d0dda18d03b2adefbb0e242b5e7e4f319f0",
          "topics": [
            "0xddf252ad1be2c89b69c2b068fc378daa952ba7f163c4a11628f55a4df523b3ef",
            "0x0000000000000000000000000000000000000000000000000000000000000000",
            "0x0000000000000000000000001135d4546611d7cccc7c4e0315072ef2e61b9483",
            "0x0000000000000000000000000000000000000000000000000000000000000004"
          ],
          "data": "0x",
          "blockHash": "0x4ecb2d59607e17a71c6404f185fec76bfc8f694e15afe4b13682be13130c0e52",
          "blockNumber": "0x226420a",
          "blockTimestamp": "0x695fe2f4",
          "transactionHash": "0xb4da1624605923ec4e5eab433de54778a100318b20260cce1c38cf52976efca7",
          "transactionIndex": "0x1a",
          "logIndex": "0xb3",
          "removed": false
        },
        {
          "address": "0x2ad52d0dda18d03b2adefbb0e242b5e7e4f319f0",
          "topics": [
            "0xddf252ad1be2c89b69c2b068fc378daa952ba7f163c4a11628f55a4df523b3ef",
            "0x0000000000000000000000000000000000000000000000000000000000000000",
            "0x0000000000000000000000001135d4546611d7cccc7c4e0315072ef2e61b9483",
            "0x0000000000000000000000000000000000000000000000000000000000000005"
          ],
          "data": "0x",
          "blockHash": "0x4ecb2d59607e17a71c6404f185fec76bfc8f694e15afe4b13682be13130c0e52",
          "blockNumber": "0x226420a",
          "blockTimestamp": "0x695fe2f4",
          "transactionHash": "0xb4da1624605923ec4e5eab433de54778a100318b20260cce1c38cf52976efca7",
          "transactionIndex": "0x1a",
          "logIndex": "0xb4",
          "removed": false
        },
        {
          "address": "0x2ad52d0dda18d03b2adefbb0e242b5e7e4f319f0",
          "topics": [
            "0xddf252ad1be2c89b69c2b068fc378daa952ba7f163c4a11628f55a4df523b3ef",
            "0x0000000000000000000000000000000000000000000000000000000000000000",
            "0x0000000000000000000000001135d4546611d7cccc7c4e0315072ef2e61b9483",
            "0x0000000000000000000000000000000000000000000000000000000000000006"
          ],
          "data": "0x",
          "blockHash": "0x4ecb2d59607e17a71c6404f185fec76bfc8f694e15afe4b13682be13130c0e52",
          "blockNumber": "0x226420a",
          "blockTimestamp": "0x695fe2f4",
          "transactionHash": "0xb4da1624605923ec4e5eab433de54778a100318b20260cce1c38cf52976efca7",
          "transactionIndex": "0x1a",
          "logIndex": "0xb5",
          "removed": false
        },
        {
          "address": "0x2ad52d0dda18d03b2adefbb0e242b5e7e4f319f0",
          "topics": [
            "0xddf252ad1be2c89b69c2b068fc378daa952ba7f163c4a11628f55a4df523b3ef",
            "0x0000000000000000000000000000000000000000000000000000000000000000",
            "0x0000000000000000000000001135d4546611d7cccc7c4e0315072ef2e61b9483",
            "0x0000000000000000000000000000000000000000000000000000000000000007"
          ],
          "data": "0x",
          "blockHash": "0x4ecb2d59607e17a71c6404f185fec76bfc8f694e15afe4b13682be13130c0e52",
          "blockNumber": "0x226420a",
          "blockTimestamp": "0x695fe2f4",
          "transactionHash": "0xb4da1624605923ec4e5eab433de54778a100318b20260cce1c38cf52976efca7",
          "transactionIndex": "0x1a",
          "logIndex": "0xb6",
          "removed": false
        },
        {
          "address": "0x2ad52d0dda18d03b2adefbb0e242b5e7e4f319f0",
          "topics": [
            "0xddf252ad1be2c89b69c2b068fc378daa952ba7f163c4a11628f55a4df523b3ef",
            "0x0000000000000000000000000000000000000000000000000000000000000000",
            "0x0000000000000000000000001135d4546611d7cccc7c4e0315072ef2e61b9483",
            "0x0000000000000000000000000000000000000000000000000000000000000008"
          ],
          "data": "0x",
          "blockHash": "0x4ecb2d59607e17a71c6404f185fec76bfc8f694e15afe4b13682be13130c0e52",
          "blockNumber": "0x226420a",
          "blockTimestamp": "0x695fe2f4",
          "transactionHash": "0xb4da1624605923ec4e5eab433de54778a100318b20260cce1c38cf52976efca7",
          "transactionIndex": "0x1a",
          "logIndex": "0xb7",
          "removed": false
        },
        {
          "address": "0x2ad52d0dda18d03b2adefbb0e242b5e7e4f319f0",
          "topics": [
            "0xddf252ad1be2c89b69c2b068fc378daa952ba7f163c4a11628f55a4df523b3ef",
            "0x0000000000000000000000000000000000000000000000000000000000000000",
            "0x0000000000000000000000001135d4546611d7cccc7c4e0315072ef2e61b9483",
            "0x0000000000000000000000000000000000000000000000000000000000000009"
          ],
          "data": "0x",
          "blockHash": "0x4ecb2d59607e17a71c6404f185fec76bfc8f694e15afe4b13682be13130c0e52",
          "blockNumber": "0x226420a",
          "blockTimestamp": "0x695fe2f4",
          "transactionHash": "0xb4da1624605923ec4e5eab433de54778a100318b20260cce1c38cf52976efca7",
          "transactionIndex": "0x1a",
          "logIndex": "0xb8",
          "removed": false
        },
        {
          "address": "0x2ad52d0dda18d03b2adefbb0e242b5e7e4f319f0",
          "topics": [
            "0xddf252ad1be2c89b69c2b068fc378daa952ba7f163c4a11628f55a4df523b3ef",
            "0x0000000000000000000000000000000000000000000000000000000000000000",
            "0x0000000000000000000000001135d4546611d7cccc7c4e0315072ef2e61b9483",
            "0x000000000000000000000000000000000000000000000000000000000000000a"
          ],
          "data": "0x",
          "blockHash": "0x4ecb2d59607e17a71c6404f185fec76bfc8f694e15afe4b13682be13130c0e52",
          "blockNumber": "0x226420a",
          "blockTimestamp": "0x695fe2f4",
          "transactionHash": "0xb4da1624605923ec4e5eab433de54778a100318b20260cce1c38cf52976efca7",
          "transactionIndex": "0x1a",
          "logIndex": "0xb9",
          "removed": false
        }
      ],
      "logsBloom": "0x04000000000000000000000000000000000000000000000000000000000000000000000000000000000000000000000000001000060480000020000000240100000030000000000000000008000000000000000000041000000000000000000008000000020000000000000000000800000000000000000000000010000000000280000400000000010000000000001000001800000000000000000000000000000000000000000000000100000000000000000000800000002000080000400040000002000000000000000000000000000000008000000000000100000060000000000000000000000000000800000000000000008000000000400000800000",
      "type": "0x2",
      "transactionHash": "0xb4da1624605923ec4e5eab433de54778a100318b20260cce1c38cf52976efca7",
      "transactionIndex": "0x1a",
      "blockHash": "0x4ecb2d59607e17a71c6404f185fec76bfc8f694e15afe4b13682be13130c0e52",
      "blockNumber": "0x226420a",
      "gasUsed": "0x4cd82",
      "effectiveGasPrice": "0x124f80",
      "blobGasUsed": "0xc570",
      "from": "0x1135d4546611d7cccc7c4e0315072ef2e61b9483",
      "to": "0x2ad52d0dda18d03b2adefbb0e242b5e7e4f319f0",
      "contractAddress": null,
      "daFootprintGasScalar": "0x138",
      "l1BaseFeeScalar": "0x44d",
      "l1BlobBaseFee": "0x1093b6",
      "l1BlobBaseFeeScalar": "0xa118b",
      "l1Fee": "0x5f0b222",
      "l1GasPrice": "0xf2507f",
      "l1GasUsed": "0xa25"
    },
    {
      "status": "0x1",
      "cumulativeGasUsed": "0x7b1351",
      "logs": [
        {
          "address": "0x2ad52d0dda18d03b2adefbb0e242b5e7e4f319f0",
          "topics": [
            "0xddf252ad1be2c89b69c2b068fc378daa952ba7f163c4a11628f55a4df523b3ef",
            "0x0000000000000000000000000000000000000000000000000000000000000000",
            "0x0000000000000000000000001135d4546611d7cccc7c4e0315072ef2e61b9483",
            "0x0000000000000000000000000000000000000000000000000000000000000064"
          ],
          "data": "0x",
          "blockHash": "0x4ecb2d59607e17a71c6404f185fec76bfc8f694e15afe4b13682be13130c0e52",
          "blockNumber": "0x226420a",
          "blockTimestamp": "0x695fe2f4",
          "transactionHash": "0x443168394397de50045a308bbaa867fe34c896a21d543ef452cc21f858fe44c8",
          "transactionIndex": "0x1b",
          "logIndex": "0xba",
          "removed": false
        },
        {
          "address": "0x2ad52d0dda18d03b2adefbb0e242b5e7e4f319f0",
          "topics": [
            "0xddf252ad1be2c89b69c2b068fc378daa952ba7f163c4a11628f55a4df523b3ef",
            "0x0000000000000000000000000000000000000000000000000000000000000000",
            "0x0000000000000000000000001135d4546611d7cccc7c4e0315072ef2e61b9483",
            "0x0000000000000000000000000000000000000000000000000000000000000065"
          ],
          "data": "0x",
          "blockHash": "0x4ecb2d59607e17a71c6404f185fec76bfc8f694e15afe4b13682be13130c0e52",
          "blockNumber": "0x226420a",
          "blockTimestamp": "0x695fe2f4",
          "transactionHash": "0x443168394397de50045a308bbaa867fe34c896a21d543ef452cc21f858fe44c8",
          "transactionIndex": "0x1b",
          "logIndex": "0xbb",
          "removed": false
        },
        {
          "address": "0x2ad52d0dda18d03b2adefbb0e242b5e7e4f319f0",
          "topics": [
            "0xddf252ad1be2c89b69c2b068fc378daa952ba7f163c4a11628f55a4df523b3ef",
            "0x0000000000000000000000000000000000000000000000000000000000000000",
            "0x0000000000000000000000001135d4546611d7cccc7c4e0315072ef2e61b9483",
            "0x0000000000000000000000000000000000000000000000000000000000000066"
          ],
          "data": "0x",
          "blockHash": "0x4ecb2d59607e17a71c6404f185fec76bfc8f694e15afe4b13682be13130c0e52",
          "blockNumber": "0x226420a",
          "blockTimestamp": "0x695fe2f4",
          "transactionHash": "0x443168394397de50045a308bbaa867fe34c896a21d543ef452cc21f858fe44c8",
          "transactionIndex": "0x1b",
          "logIndex": "0xbc",
          "removed": false
        },
        {
          "address": "0x2ad52d0dda18d03b2adefbb0e242b5e7e4f319f0",
          "topics": [
            "0xddf252ad1be2c89b69c2b068fc378daa952ba7f163c4a11628f55a4df523b3ef",
            "0x0000000000000000000000000000000000000000000000000000000000000000",
            "0x0000000000000000000000001135d4546611d7cccc7c4e0315072ef2e61b9483",
            "0x0000000000000000000000000000000000000000000000000000000000000067"
          ],
          "data": "0x",
          "blockHash": "0x4ecb2d59607e17a71c6404f185fec76bfc8f694e15afe4b13682be13130c0e52",
          "blockNumber": "0x226420a",
          "blockTimestamp": "0x695fe2f4",
          "transactionHash": "0x443168394397de50045a308bbaa867fe34c896a21d543ef452cc21f858fe44c8",
          "transactionIndex": "0x1b",
          "logIndex": "0xbd",
          "removed": false
        },
        {
          "address": "0x2ad52d0dda18d03b2adefbb0e242b5e7e4f319f0",
          "topics": [
            "0xddf252ad1be2c89b69c2b068fc378daa952ba7f163c4a11628f55a4df523b3ef",
            "0x0000000000000000000000000000000000000000000000000000000000000000",
            "0x0000000000000000000000001135d4546611d7cccc7c4e0315072ef2e61b9483",
            "0x0000000000000000000000000000000000000000000000000000000000000068"
          ],
          "data": "0x",
          "blockHash": "0x4ecb2d59607e17a71c6404f185fec76bfc8f694e15afe4b13682be13130c0e52",
          "blockNumber": "0x226420a",
          "blockTimestamp": "0x695fe2f4",
          "transactionHash": "0x443168394397de50045a308bbaa867fe34c896a21d543ef452cc21f858fe44c8",
          "transactionIndex": "0x1b",
          "logIndex": "0xbe",
          "removed": false
        },
        {
          "address": "0x2ad52d0dda18d03b2adefbb0e242b5e7e4f319f0",
          "topics": [
            "0xddf252ad1be2c89b69c2b068fc378daa952ba7f163c4a11628f55a4df523b3ef",
            "0x0000000000000000000000000000000000000000000000000000000000000000",
            "0x0000000000000000000000001135d4546611d7cccc7c4e0315072ef2e61b9483",
            "0x0000000000000000000000000000000000000000000000000000000000000069"
          ],
          "data": "0x",
          "blockHash": "0x4ecb2d59607e17a71c6404f185fec76bfc8f694e15afe4b13682be13130c0e52",
          "blockNumber": "0x226420a",
          "blockTimestamp": "0x695fe2f4",
          "transactionHash": "0x443168394397de50045a308bbaa867fe34c896a21d543ef452cc21f858fe44c8",
          "transactionIndex": "0x1b",
          "logIndex": "0xbf",
          "removed": false
        }
      ],
      "logsBloom": "0x02000008000000000010000000000080000000000000000000000000000000000000000000000000020000000002000000010000000100008000000000280100000000000000000000000008000000000000000000001000000000000000000000000000020000000000000000000800000000000000000000000011020000000200000000000000000000000000000000000000000000000000000000000000000000000000000000000000000000000000000000000000000000000020000000000002000000000000000000000000000000000000000000000000000020000000000000000400000000000800000002000000000000108000400000000000",
      "type": "0x2",
      "transactionHash": "0x443168394397de50045a308bbaa867fe34c896a21d543ef452cc21f858fe44c8",
      "transactionIndex": "0x1b",
      "blockHash": "0x4ecb2d59607e17a71c6404f185fec76bfc8f694e15afe4b13682be13130c0e52",
      "blockNumber": "0x226420a",
      "gasUsed": "0x2c516",
      "effectiveGasPrice": "0x124f80",
      "blobGasUsed": "0xa488",
      "from": "0x1135d4546611d7cccc7c4e0315072ef2e61b9483",
      "to": "0x2ad52d0dda18d03b2adefbb0e242b5e7e4f319f0",
      "contractAddress": null,
      "daFootprintGasScalar": "0x138",
      "l1BaseFeeScalar": "0x44d",
      "l1BlobBaseFee": "0x1093b6",
      "l1BlobBaseFeeScalar": "0xa118b",
      "l1Fee": "0x5f0b222",
      "l1GasPrice": "0xf2507f",
      "l1GasUsed": "0x879"
    },
    {
      "status": "0x1",
      "cumulativeGasUsed": "0x7bc937",
      "logs": [
        {
          "address": "0x2ad52d0dda18d03b2adefbb0e242b5e7e4f319f0",
          "topics": [
            "0x17307eab39ab6107e8899845ad3d59bd9653f200f220920489ca2b5937696c31",
            "0x0000000000000000000000001135d4546611d7cccc7c4e0315072ef2e61b9483",
            "0x0000000000000000000000004575a3c03d3d0818a44ab2960163d277c53adad0"
          ],
          "data": "0x0000000000000000000000000000000000000000000000000000000000000001",
          "blockHash": "0x4ecb2d59607e17a71c6404f185fec76bfc8f694e15afe4b13682be13130c0e52",
          "blockNumber": "0x226420a",
          "blockTimestamp": "0x695fe2f4",
          "transactionHash": "0x2c56764a93328eb291f0750fe89b911dbfbabb062e13256c79ed71a89b458c39",
          "transactionIndex": "0x1c",
          "logIndex": "0xc0",
          "removed": false
        }
      ],
      "logsBloom": "0x00000000000000000000000000000000000000000000000000000000000000000000000000000000000000000000000000000000000000000000000000200100000000000000000000000000000000000000000000001000000000000000000002000000000000000400000000000000000000000000000002000000000000000200000000000000000000000000000000000000000000000000000000000000000000000000000000000000000000000000000000000000000000000000000000000000000000000000000000000000000000000000000000000000000000000000200800000000200000000800000000000000000000000000400000000000",
      "type": "0x2",
      "transactionHash": "0x2c56764a93328eb291f0750fe89b911dbfbabb062e13256c79ed71a89b458c39",
      "transactionIndex": "0x1c",
      "blockHash": "0x4ecb2d59607e17a71c6404f185fec76bfc8f694e15afe4b13682be13130c0e52",
      "blockNumber": "0x226420a",
      "gasUsed": "0xb5e6",
      "effectiveGasPrice": "0x124f80",
      "blobGasUsed": "0x79e0",
      "from": "0x1135d4546611d7cccc7c4e0315072ef2e61b9483",
      "to": "0x2ad52d0dda18d03b2adefbb0e242b5e7e4f319f0",
      "contractAddress": null,
      "daFootprintGasScalar": "0x138",
      "l1BaseFeeScalar": "0x44d",
      "l1BlobBaseFee": "0x1093b6",
      "l1BlobBaseFeeScalar": "0xa118b",
      "l1Fee": "0x5f0b222",
      "l1GasPrice": "0xf2507f",
      "l1GasUsed": "0x640"
    },
    {
      "status": "0x1",
      "cumulativeGasUsed": "0x85f90e",
      "logs": [
        {
          "address": "0x2ad52d0dda18d03b2adefbb0e242b5e7e4f319f0",
          "topics": [
            "0xddf252ad1be2c89b69c2b068fc378daa952ba7f163c4a11628f55a4df523b3ef",
            "0x0000000000000000000000001135d4546611d7cccc7c4e0315072ef2e61b9483",
            "0x0000000000000000000000004575a3c03d3d0818a44ab2960163d277c53adad0",
            "0x0000000000000000000000000000000000000000000000000000000000000001"
          ],
          "data": "0x",
          "blockHash": "0x4ecb2d59607e17a71c6404f185fec76bfc8f694e15afe4b13682be13130c0e52",
          "blockNumber": "0x226420a",
          "blockTimestamp": "0x695fe2f4",
          "transactionHash": "0x32c8d72a874bd4fa3fb28f08c40fe4b579af697a403120e60dd926519d604223",
          "transactionIndex": "0x1d",
          "logIndex": "0xc1",
          "removed": false
        },
        {
          "address": "0x4575a3c03d3d0818a44ab2960163d277c53adad0",
          "topics": [
            "0xf36d7a61da5869f1f725b62b3414422372ff984566d321f9758ec768fb859a88",
            "0x0000000000000000000000000000000000000000000000000000000000000001"
          ],
          "data": "0x",
          "blockHash": "0x4ecb2d59607e17a71c6404f185fec76bfc8f694e15afe4b13682be13130c0e52",
          "blockNumber": "0x226420a",
          "blockTimestamp": "0x695fe2f4",
          "transactionHash": "0x32c8d72a874bd4fa3fb28f08c40fe4b579af697a403120e60dd926519d604223",
          "transactionIndex": "0x1d",
          "logIndex": "0xc2",
          "removed": false
        },
        {
          "address": "0x2ad52d0dda18d03b2adefbb0e242b5e7e4f319f0",
          "topics": [
            "0xddf252ad1be2c89b69c2b068fc378daa952ba7f163c4a11628f55a4df523b3ef",
            "0x0000000000000000000000001135d4546611d7cccc7c4e0315072ef2e61b9483",
            "0x0000000000000000000000004575a3c03d3d0818a44ab2960163d277c53adad0",
            "0x0000000000000000000000000000000000000000000000000000000000000002"
          ],
          "data": "0x",
          "blockHash": "0x4ecb2d59607e17a71c6404f185fec76bfc8f694e15afe4b13682be13130c0e52",
          "blockNumber": "0x226420a",
          "blockTimestamp": "0x695fe2f4",
          "transactionHash": "0x32c8d72a874bd4fa3fb28f08c40fe4b579af697a403120e60dd926519d604223",
          "transactionIndex": "0x1d",
          "logIndex": "0xc3",
          "removed": false
        },
        {
          "address": "0x4575a3c03d3d0818a44ab2960163d277c53adad0",
          "topics": [
            "0xf36d7a61da5869f1f725b62b3414422372ff984566d321f9758ec768fb859a88",
            "0x0000000000000000000000000000000000000000000000000000000000000002"
          ],
          "data": "0x",
          "blockHash": "0x4ecb2d59607e17a71c6404f185fec76bfc8f694e15afe4b13682be13130c0e52",
          "blockNumber": "0x226420a",
          "blockTimestamp": "0x695fe2f4",
          "transactionHash": "0x32c8d72a874bd4fa3fb28f08c40fe4b579af697a403120e60dd926519d604223",
          "transactionIndex": "0x1d",
          "logIndex": "0xc4",
          "removed": false
        },
        {
          "address": "0x2ad52d0dda18d03b2adefbb0e242b5e7e4f319f0",
          "topics": [
            "0xddf252ad1be2c89b69c2b068fc378daa952ba7f163c4a11628f55a4df523b3ef",
            "0x0000000000000000000000001135d4546611d7cccc7c4e0315072ef2e61b9483",
            "0x0000000000000000000000004575a3c03d3d0818a44ab2960163d277c53adad0",
            "0x0000000000000000000000000000000000000000000000000000000000000003"
          ],
          "data": "0x",
          "blockHash": "0x4ecb2d59607e17a71c6404f185fec76bfc8f694e15afe4b13682be13130c0e52",
          "blockNumber": "0x226420a",
          "blockTimestamp": "0x695fe2f4",
          "transactionHash": "0x32c8d72a874bd4fa3fb28f08c40fe4b579af697a403120e60dd926519d604223",
          "transactionIndex": "0x1d",
          "logIndex": "0xc5",
          "removed": false
        },
        {
          "address": "0x4575a3c03d3d0818a44ab2960163d277c53adad0",
          "topics": [
            "0xf36d7a61da5869f1f725b62b3414422372ff984566d321f9758ec768fb859a88",
            "0x0000000000000000000000000000000000000000000000000000000000000003"
          ],
          "data": "0x",
          "blockHash": "0x4ecb2d59607e17a71c6404f185fec76bfc8f694e15afe4b13682be13130c0e52",
          "blockNumber": "0x226420a",
          "blockTimestamp": "0x695fe2f4",
          "transactionHash": "0x32c8d72a874bd4fa3fb28f08c40fe4b579af697a403120e60dd926519d604223",
          "transactionIndex": "0x1d",
          "logIndex": "0xc6",
          "removed": false
        },
        {
          "address": "0x2ad52d0dda18d03b2adefbb0e242b5e7e4f319f0",
          "topics": [
            "0xddf252ad1be2c89b69c2b068fc378daa952ba7f163c4a11628f55a4df523b3ef",
            "0x0000000000000000000000001135d4546611d7cccc7c4e0315072ef2e61b9483",
            "0x0000000000000000000000004575a3c03d3d0818a44ab2960163d277c53adad0",
            "0x0000000000000000000000000000000000000000000000000000000000000004"
          ],
          "data": "0x",
          "blockHash": "0x4ecb2d59607e17a71c6404f185fec76bfc8f694e15afe4b13682be13130c0e52",
          "blockNumber": "0x226420a",
          "blockTimestamp": "0x695fe2f4",
          "transactionHash": "0x32c8d72a874bd4fa3fb28f08c40fe4b579af697a403120e60dd926519d604223",
          "transactionIndex": "0x1d",
          "logIndex": "0xc7",
          "removed": false
        },
        {
          "address": "0x4575a3c03d3d0818a44ab2960163d277c53adad0",
          "topics": [
            "0xf36d7a61da5869f1f725b62b3414422372ff984566d321f9758ec768fb859a88",
            "0x0000000000000000000000000000000000000000000000000000000000000004"
          ],
          "data": "0x",
          "blockHash": "0x4ecb2d59607e17a71c6404f185fec76bfc8f694e15afe4b13682be13130c0e52",
          "blockNumber": "0x226420a",
          "blockTimestamp": "0x695fe2f4",
          "transactionHash": "0x32c8d72a874bd4fa3fb28f08c40fe4b579af697a403120e60dd926519d604223",
          "transactionIndex": "0x1d",
          "logIndex": "0xc8",
          "removed": false
        },
        {
          "address": "0x2ad52d0dda18d03b2adefbb0e242b5e7e4f319f0",
          "topics": [
            "0xddf252ad1be2c89b69c2b068fc378daa952ba7f163c4a11628f55a4df523b3ef",
            "0x0000000000000000000000001135d4546611d7cccc7c4e0315072ef2e61b9483",
            "0x0000000000000000000000004575a3c03d3d0818a44ab2960163d277c53adad0",
            "0x0000000000000000000000000000000000000000000000000000000000000005"
          ],
          "data": "0x",
          "blockHash": "0x4ecb2d59607e17a71c6404f185fec76bfc8f694e15afe4b13682be13130c0e52",
          "blockNumber": "0x226420a",
          "blockTimestamp": "0x695fe2f4",
          "transactionHash": "0x32c8d72a874bd4fa3fb28f08c40fe4b579af697a403120e60dd926519d604223",
          "transactionIndex": "0x1d",
          "logIndex": "0xc9",
          "removed": false
        },
        {
          "address": "0x4575a3c03d3d0818a44ab2960163d277c53adad0",
          "topics": [
            "0xf36d7a61da5869f1f725b62b3414422372ff984566d321f9758ec768fb859a88",
            "0x0000000000000000000000000000000000000000000000000000000000000005"
          ],
          "data": "0x",
          "blockHash": "0x4ecb2d59607e17a71c6404f185fec76bfc8f694e15afe4b13682be13130c0e52",
          "blockNumber": "0x226420a",
          "blockTimestamp": "0x695fe2f4",
          "transactionHash": "0x32c8d72a874bd4fa3fb28f08c40fe4b579af697a403120e60dd926519d604223",
          "transactionIndex": "0x1d",
          "logIndex": "0xca",
          "removed": false
        },
        {
          "address": "0x2ad52d0dda18d03b2adefbb0e242b5e7e4f319f0",
          "topics": [
            "0xddf252ad1be2c89b69c2b068fc378daa952ba7f163c4a11628f55a4df523b3ef",
            "0x0000000000000000000000001135d4546611d7cccc7c4e0315072ef2e61b9483",
            "0x0000000000000000000000004575a3c03d3d0818a44ab2960163d277c53adad0",
            "0x0000000000000000000000000000000000000000000000000000000000000006"
          ],
          "data": "0x",
          "blockHash": "0x4ecb2d59607e17a71c6404f185fec76bfc8f694e15afe4b13682be13130c0e52",
          "blockNumber": "0x226420a",
          "blockTimestamp": "0x695fe2f4",
          "transactionHash": "0x32c8d72a874bd4fa3fb28f08c40fe4b579af697a403120e60dd926519d604223",
          "transactionIndex": "0x1d",
          "logIndex": "0xcb",
          "removed": false
        },
        {
          "address": "0x4575a3c03d3d0818a44ab2960163d277c53adad0",
          "topics": [
            "0xf36d7a61da5869f1f725b62b3414422372ff984566d321f9758ec768fb859a88",
            "0x0000000000000000000000000000000000000000000000000000000000000006"
          ],
          "data": "0x",
          "blockHash": "0x4ecb2d59607e17a71c6404f185fec76bfc8f694e15afe4b13682be13130c0e52",
          "blockNumber": "0x226420a",
          "blockTimestamp": "0x695fe2f4",
          "transactionHash": "0x32c8d72a874bd4fa3fb28f08c40fe4b579af697a403120e60dd926519d604223",
          "transactionIndex": "0x1d",
          "logIndex": "0xcc",
          "removed": false
        },
        {
          "address": "0x2ad52d0dda18d03b2adefbb0e242b5e7e4f319f0",
          "topics": [
            "0xddf252ad1be2c89b69c2b068fc378daa952ba7f163c4a11628f55a4df523b3ef",
            "0x0000000000000000000000001135d4546611d7cccc7c4e0315072ef2e61b9483",
            "0x0000000000000000000000004575a3c03d3d0818a44ab2960163d277c53adad0",
            "0x0000000000000000000000000000000000000000000000000000000000000007"
          ],
          "data": "0x",
          "blockHash": "0x4ecb2d59607e17a71c6404f185fec76bfc8f694e15afe4b13682be13130c0e52",
          "blockNumber": "0x226420a",
          "blockTimestamp": "0x695fe2f4",
          "transactionHash": "0x32c8d72a874bd4fa3fb28f08c40fe4b579af697a403120e60dd926519d604223",
          "transactionIndex": "0x1d",
          "logIndex": "0xcd",
          "removed": false
        },
        {
          "address": "0x4575a3c03d3d0818a44ab2960163d277c53adad0",
          "topics": [
            "0xf36d7a61da5869f1f725b62b3414422372ff984566d321f9758ec768fb859a88",
            "0x0000000000000000000000000000000000000000000000000000000000000007"
          ],
          "data": "0x",
          "blockHash": "0x4ecb2d59607e17a71c6404f185fec76bfc8f694e15afe4b13682be13130c0e52",
          "blockNumber": "0x226420a",
          "blockTimestamp": "0x695fe2f4",
          "transactionHash": "0x32c8d72a874bd4fa3fb28f08c40fe4b579af697a403120e60dd926519d604223",
          "transactionIndex": "0x1d",
          "logIndex": "0xce",
          "removed": false
        },
        {
          "address": "0x2ad52d0dda18d03b2adefbb0e242b5e7e4f319f0",
          "topics": [
            "0xddf252ad1be2c89b69c2b068fc378daa952ba7f163c4a11628f55a4df523b3ef",
            "0x0000000000000000000000001135d4546611d7cccc7c4e0315072ef2e61b9483",
            "0x0000000000000000000000004575a3c03d3d0818a44ab2960163d277c53adad0",
            "0x0000000000000000000000000000000000000000000000000000000000000008"
          ],
          "data": "0x",
          "blockHash": "0x4ecb2d59607e17a71c6404f185fec76bfc8f694e15afe4b13682be13130c0e52",
          "blockNumber": "0x226420a",
          "blockTimestamp": "0x695fe2f4",
          "transactionHash": "0x32c8d72a874bd4fa3fb28f08c40fe4b579af697a403120e60dd926519d604223",
          "transactionIndex": "0x1d",
          "logIndex": "0xcf",
          "removed": false
        },
        {
          "address": "0x4575a3c03d3d0818a44ab2960163d277c53adad0",
          "topics": [
            "0xf36d7a61da5869f1f725b62b3414422372ff984566d321f9758ec768fb859a88",
            "0x0000000000000000000000000000000000000000000000000000000000000008"
          ],
          "data": "0x",
          "blockHash": "0x4ecb2d59607e17a71c6404f185fec76bfc8f694e15afe4b13682be13130c0e52",
          "blockNumber": "0x226420a",
          "blockTimestamp": "0x695fe2f4",
          "transactionHash": "0x32c8d72a874bd4fa3fb28f08c40fe4b579af697a403120e60dd926519d604223",
          "transactionIndex": "0x1d",
          "logIndex": "0xd0",
          "removed": false
        },
        {
          "address": "0x2ad52d0dda18d03b2adefbb0e242b5e7e4f319f0",
          "topics": [
            "0xddf252ad1be2c89b69c2b068fc378daa952ba7f163c4a11628f55a4df523b3ef",
            "0x0000000000000000000000001135d4546611d7cccc7c4e0315072ef2e61b9483",
            "0x0000000000000000000000004575a3c03d3d0818a44ab2960163d277c53adad0",
            "0x0000000000000000000000000000000000000000000000000000000000000009"
          ],
          "data": "0x",
          "blockHash": "0x4ecb2d59607e17a71c6404f185fec76bfc8f694e15afe4b13682be13130c0e52",
          "blockNumber": "0x226420a",
          "blockTimestamp": "0x695fe2f4",
          "transactionHash": "0x32c8d72a874bd4fa3fb28f08c40fe4b579af697a403120e60dd926519d604223",
          "transactionIndex": "0x1d",
          "logIndex": "0xd1",
          "removed": false
        },
        {
          "address": "0x4575a3c03d3d0818a44ab2960163d277c53adad0",
          "topics": [
            "0xf36d7a61da5869f1f725b62b3414422372ff984566d321f9758ec768fb859a88",
            "0x0000000000000000000000000000000000000000000000000000000000000009"
          ],
          "data": "0x",
          "blockHash": "0x4ecb2d59607e17a71c6404f185fec76bfc8f694e15afe4b13682be13130c0e52",
          "blockNumber": "0x226420a",
          "blockTimestamp": "0x695fe2f4",
          "transactionHash": "0x32c8d72a874bd4fa3fb28f08c40fe4b579af697a403120e60dd926519d604223",
          "transactionIndex": "0x1d",
          "logIndex": "0xd2",
          "removed": false
        },
        {
          "address": "0x2ad52d0dda18d03b2adefbb0e242b5e7e4f319f0",
          "topics": [
            "0xddf252ad1be2c89b69c2b068fc378daa952ba7f163c4a11628f55a4df523b3ef",
            "0x0000000000000000000000001135d4546611d7cccc7c4e0315072ef2e61b9483",
            "0x0000000000000000000000004575a3c03d3d0818a44ab2960163d277c53adad0",
            "0x000000000000000000000000000000000000000000000000000000000000000a"
          ],
          "data": "0x",
          "blockHash": "0x4ecb2d59607e17a71c6404f185fec76bfc8f694e15afe4b13682be13130c0e52",
          "blockNumber": "0x226420a",
          "blockTimestamp": "0x695fe2f4",
          "transactionHash": "0x32c8d72a874bd4fa3fb28f08c40fe4b579af697a403120e60dd926519d604223",
          "transactionIndex": "0x1d",
          "logIndex": "0xd3",
          "removed": false
        },
        {
          "address": "0x4575a3c03d3d0818a44ab2960163d277c53adad0",
          "topics": [
            "0xf36d7a61da5869f1f725b62b3414422372ff984566d321f9758ec768fb859a88",
            "0x000000000000000000000000000000000000000000000000000000000000000a"
          ],
          "data": "0x",
          "blockHash": "0x4ecb2d59607e17a71c6404f185fec76bfc8f694e15afe4b13682be13130c0e52",
          "blockNumber": "0x226420a",
          "blockTimestamp": "0x695fe2f4",
          "transactionHash": "0x32c8d72a874bd4fa3fb28f08c40fe4b579af697a403120e60dd926519d604223",
          "transactionIndex": "0x1d",
          "logIndex": "0xd4",
          "removed": false
        }
      ],
      "logsBloom": "0x04000000000000000000000000000000000000000000000000000000000000000000000800000000000000000000000000001000060480000020000000240100000030000000000000000008000000000000000000041000008000000000000008000000000000000400000002000000000000000000000002200010000000000280000400000000010000000000001000001800000000000000000000000000000000000000000000000100000000000000000000800000002000080000400040000002000000000000000000000000000000008000000000000100000040000000400000000000200000000800000000000000008000000000400000800000",
      "type": "0x2",
      "transactionHash": "0x32c8d72a874bd4fa3fb28f08c40fe4b579af697a403120e60dd926519d604223",
      "transactionIndex": "0x1d",
      "blockHash": "0x4ecb2d59607e17a71c6404f185fec76bfc8f694e15afe4b13682be13130c0e52",
      "blockNumber": "0x226420a",
      "gasUsed": "0xa2fd7",
      "effectiveGasPrice": "0x124f80",
      "blobGasUsed": "0x9d38",
      "from": "0x1135d4546611d7cccc7c4e0315072ef2e61b9483",
      "to": "0x4575a3c03d3d0818a44ab2960163d277c53adad0",
      "contractAddress": null,
      "daFootprintGasScalar": "0x138",
      "l1BaseFeeScalar": "0x44d",
      "l1BlobBaseFee": "0x1093b6",
      "l1BlobBaseFeeScalar": "0xa118b",
      "l1Fee": "0x5f0b222",
      "l1GasPrice": "0xf2507f",
      "l1GasUsed": "0x81b"
    }
  ],
  "libraries": [],
  "pending": [],
  "returns": {},
  "timestamp": 1767891699,
  "chain": 84532,
  "commit": null
}